{
  "address": "0x5aa01B3b5877255cE50cc55e8986a7a5fe29C70e",
  "abi": [
    {
      "inputs": [
        {
          "internalType": "address",
          "name": "_usdtTokenAddress",
          "type": "address"
        }
      ],
      "stateMutability": "nonpayable",
      "type": "constructor"
    },
    {
      "inputs": [],
      "name": "ECDSAInvalidSignature",
      "type": "error"
    },
    {
      "inputs": [
        {
          "internalType": "uint256",
          "name": "length",
          "type": "uint256"
        }
      ],
      "name": "ECDSAInvalidSignatureLength",
      "type": "error"
    },
    {
      "inputs": [
        {
          "internalType": "bytes32",
          "name": "s",
          "type": "bytes32"
        }
      ],
      "name": "ECDSAInvalidSignatureS",
      "type": "error"
    },
    {
      "inputs": [
        {
          "internalType": "address",
          "name": "account",
          "type": "address"
        },
        {
          "internalType": "uint256",
          "name": "currentNonce",
          "type": "uint256"
        }
      ],
      "name": "InvalidAccountNonce",
      "type": "error"
    },
    {
      "inputs": [],
      "name": "InvalidShortString",
      "type": "error"
    },
    {
      "inputs": [
        {
          "internalType": "address",
          "name": "owner",
          "type": "address"
        }
      ],
      "name": "OwnableInvalidOwner",
      "type": "error"
    },
    {
      "inputs": [
        {
          "internalType": "address",
          "name": "account",
          "type": "address"
        }
      ],
      "name": "OwnableUnauthorizedAccount",
      "type": "error"
    },
    {
      "inputs": [
        {
          "internalType": "string",
          "name": "str",
          "type": "string"
        }
      ],
      "name": "StringTooLong",
      "type": "error"
    },
    {
      "anonymous": false,
      "inputs": [],
      "name": "EIP712DomainChanged",
      "type": "event"
    },
    {
      "anonymous": false,
      "inputs": [
        {
          "indexed": true,
          "internalType": "address",
          "name": "previousOwner",
          "type": "address"
        },
        {
          "indexed": true,
          "internalType": "address",
          "name": "newOwner",
          "type": "address"
        }
      ],
      "name": "OwnershipTransferred",
      "type": "event"
    },
    {
      "anonymous": false,
      "inputs": [
        {
          "indexed": true,
          "internalType": "address",
          "name": "from",
          "type": "address"
        },
        {
          "indexed": true,
          "internalType": "address",
          "name": "to",
          "type": "address"
        },
        {
          "indexed": false,
          "internalType": "uint256",
          "name": "amountSent",
          "type": "uint256"
        }
      ],
      "name": "PaymentSent",
      "type": "event"
    },
    {
      "inputs": [],
      "name": "PERMIT_TYPEHASH",
      "outputs": [
        {
          "internalType": "bytes32",
          "name": "",
          "type": "bytes32"
        }
      ],
      "stateMutability": "view",
      "type": "function"
    },
    {
      "inputs": [],
      "name": "eip712Domain",
      "outputs": [
        {
          "internalType": "bytes1",
          "name": "fields",
          "type": "bytes1"
        },
        {
          "internalType": "string",
          "name": "name",
          "type": "string"
        },
        {
          "internalType": "string",
          "name": "version",
          "type": "string"
        },
        {
          "internalType": "uint256",
          "name": "chainId",
          "type": "uint256"
        },
        {
          "internalType": "address",
          "name": "verifyingContract",
          "type": "address"
        },
        {
          "internalType": "bytes32",
          "name": "salt",
          "type": "bytes32"
        },
        {
          "internalType": "uint256[]",
          "name": "extensions",
          "type": "uint256[]"
        }
      ],
      "stateMutability": "view",
      "type": "function"
    },
    {
      "inputs": [
        {
          "internalType": "address",
          "name": "owner",
          "type": "address"
        }
      ],
      "name": "nonces",
      "outputs": [
        {
          "internalType": "uint256",
          "name": "",
          "type": "uint256"
        }
      ],
      "stateMutability": "view",
      "type": "function"
    },
    {
      "inputs": [],
      "name": "owner",
      "outputs": [
        {
          "internalType": "address",
          "name": "",
          "type": "address"
        }
      ],
      "stateMutability": "view",
      "type": "function"
    },
    {
      "inputs": [],
      "name": "renounceOwnership",
      "outputs": [],
      "stateMutability": "nonpayable",
      "type": "function"
    },
    {
      "inputs": [
        {
          "internalType": "address",
          "name": "from",
          "type": "address"
        },
        {
          "internalType": "address",
          "name": "to",
          "type": "address"
        },
        {
          "internalType": "uint256",
          "name": "amount",
          "type": "uint256"
        },
        {
          "internalType": "uint256",
          "name": "deadline",
          "type": "uint256"
        },
        {
          "internalType": "uint8",
          "name": "v",
          "type": "uint8"
        },
        {
          "internalType": "bytes32",
          "name": "r",
          "type": "bytes32"
        },
        {
          "internalType": "bytes32",
          "name": "s",
          "type": "bytes32"
        }
      ],
      "name": "sendPaymentMeta",
      "outputs": [],
      "stateMutability": "nonpayable",
      "type": "function"
    },
    {
      "inputs": [
        {
          "internalType": "address",
          "name": "newOwner",
          "type": "address"
        }
      ],
      "name": "transferOwnership",
      "outputs": [],
      "stateMutability": "nonpayable",
      "type": "function"
    },
    {
      "inputs": [],
      "name": "usdtToken",
      "outputs": [
        {
          "internalType": "contract IERC20",
          "name": "",
          "type": "address"
        }
      ],
      "stateMutability": "view",
      "type": "function"
    },
    {
      "inputs": [],
      "name": "withdrawAVAX",
      "outputs": [],
      "stateMutability": "nonpayable",
      "type": "function"
    },
    {
      "inputs": [
        {
          "internalType": "contract IERC20",
          "name": "_tokenAddress",
          "type": "address"
        }
      ],
      "name": "withdrawTokens",
      "outputs": [],
      "stateMutability": "nonpayable",
      "type": "function"
    }
  ],
  "transactionHash": "0x51fc045816f71a21540dd20ee59afb87bf75a84820c75b34fbfc05a3d58837cf",
  "args": [
    "0x52C84043CD9c865236f11d9Fc9F56aa003c1f922"
  ],
  "numDeployments": 1,
  "solcInputHash": "4e76b7d103634e5e93e0ce923a044cef",
  "bytecode": "0x61018060405234801562000011575f80fd5b50604051620014643803806200146483398101604081905262000034916200029d565b604080518082018252600c81526b105d5d1bdb585d18555cd91d60a21b602080830191909152825180840190935260018352603160f81b908301529033806200009757604051631e4fbdf760e01b81525f60048201526024015b60405180910390fd5b620000a281620001d4565b50620000b082600162000223565b61012052620000c181600262000223565b61014052815160208084019190912060e052815190820120610100524660a0526200014e60e05161010051604080517f8b73c3c69bb8fe3d512ecc4cf759cc79239f7b179b0ffacaa9a75d522b39400f60208201529081019290925260608201524660808201523060a08201525f9060c00160405160208183030381529060405280519060200120905090565b60805250503060c0526001600160a01b038116620001c15760405162461bcd60e51b815260206004820152602960248201527f4175746f6d617461557364743a205553445420616464726573732063616e6e6f60448201526874206265207a65726f60b81b60648201526084016200008e565b6001600160a01b031661016052620004a8565b5f80546001600160a01b038381166001600160a01b0319831681178455604051919092169283917f8be0079c531659141344cd1fd0a4f28419497f9722a3daafe3b4186f6b6457e09190a35050565b5f60208351101562000242576200023a836200025b565b905062000255565b816200024f84826200036a565b5060ff90505b92915050565b5f80829050601f8151111562000288578260405163305a27a960e01b81526004016200008e919062000436565b8051620002958262000484565b179392505050565b5f60208284031215620002ae575f80fd5b81516001600160a01b0381168114620002c5575f80fd5b9392505050565b634e487b7160e01b5f52604160045260245ffd5b600181811c90821680620002f557607f821691505b6020821081036200031457634e487b7160e01b5f52602260045260245ffd5b50919050565b601f8211156200036557805f5260205f20601f840160051c81016020851015620003415750805b601f840160051c820191505b8181101562000362575f81556001016200034d565b50505b505050565b81516001600160401b03811115620003865762000386620002cc565b6200039e81620003978454620002e0565b846200031a565b602080601f831160018114620003d4575f8415620003bc5750858301515b5f19600386901b1c1916600185901b1785556200042e565b5f85815260208120601f198616915b828110156200040457888601518255948401946001909101908401620003e3565b50858210156200042257878501515f19600388901b60f8161c191681555b505060018460011b0185555b505050505050565b5f602080835283518060208501525f5b81811015620004645785810183015185820160400152820162000446565b505f604082860101526040601f19601f8301168501019250505092915050565b8051602080830151919081101562000314575f1960209190910360031b1b16919050565b60805160a05160c05160e05161010051610120516101405161016051610f596200050b5f395f818161014d01526106d001525f6108e701525f6108b501525f610ae801525f610ac001525f610a1b01525f610a4501525f610a6f0152610f595ff3fe608060405234801561000f575f80fd5b506004361061009b575f3560e01c80638da5cb5b116100635780638da5cb5b14610124578063a98ad46c14610148578063abce145b1461016f578063d281e34314610177578063f2fde38b1461018a575f80fd5b806330adf81f1461009f57806349df728c146100d9578063715018a6146100ee5780637ecebe00146100f657806384b0196e14610109575b5f80fd5b6100c67ff10a599d47b3fbeb57382b38e1c4d5f5996002c2a767dee8a1966fa1b512bbac81565b6040519081526020015b60405180910390f35b6100ec6100e7366004610d34565b61019d565b005b6100ec610362565b6100c6610104366004610d34565b610375565b610111610394565b6040516100d09796959493929190610d99565b5f546001600160a01b03165b6040516001600160a01b0390911681526020016100d0565b6101307f000000000000000000000000000000000000000000000000000000000000000081565b6100ec6103d6565b6100ec610185366004610e30565b61049a565b6100ec610198366004610d34565b6107f9565b6101a5610833565b6040516370a0823160e01b81523060048201525f906001600160a01b038316906370a0823190602401602060405180830381865afa1580156101e9573d5f803e3d5ffd5b505050506040513d601f19601f8201168201806040525081019061020d9190610ea1565b90505f811161026f5760405162461bcd60e51b815260206004820152602360248201527f4175746f6d617461557364743a204e6f20746f6b656e7320746f20776974686460448201526272617760e81b60648201526084015b60405180910390fd5b5f826001600160a01b031663a9059cbb6102905f546001600160a01b031690565b6040516001600160e01b031960e084901b1681526001600160a01b039091166004820152602481018590526044016020604051808303815f875af11580156102da573d5f803e3d5ffd5b505050506040513d601f19601f820116820180604052508101906102fe9190610eb8565b90508061035d5760405162461bcd60e51b815260206004820152602760248201527f4175746f6d617461557364743a204661696c656420746f20776974686472617760448201526620746f6b656e7360c81b6064820152608401610266565b505050565b61036a610833565b6103735f61085f565b565b6001600160a01b0381165f908152600360205260408120545b92915050565b5f6060805f805f60606103a56108ae565b6103ad6108e0565b604080515f80825260208201909252600f60f81b9b939a50919850469750309650945092509050565b6103de610833565b5f80546040516001600160a01b039091169047908381818185875af1925050503d805f8114610428576040519150601f19603f3d011682016040523d82523d5f602084013e61042d565b606091505b50509050806104975760405162461bcd60e51b815260206004820152603060248201527f4175746f6d617461557364743a204661696c656420746f20776974686472617760448201526f206e61746976652063757272656e637960801b6064820152608401610266565b50565b834211156104ea5760405162461bcd60e51b815260206004820152601f60248201527f4175746f6d617461557364743a205369676e61747572652065787069726564006044820152606401610266565b5f6104f488610375565b6040805160a080820183526001600160a01b038c8116808452908c1660208085018290528486018d905260608086018d9052608080870189905287517ff10a599d47b3fbeb57382b38e1c4d5f5996002c2a767dee8a1966fa1b512bbac9381019390935296820193909352918201529283018a9052820188905260c082018390529192505f9061059c9060e0016040516020818303038152906040528051906020012061090d565b90505f6105ab82888888610939565b90506001600160a01b0381166106035760405162461bcd60e51b815260206004820152601f60248201527f4175746f6d617461557364743a20496e76616c6964207369676e6174757265006044820152606401610266565b8a6001600160a01b0316816001600160a01b03161461067f5760405162461bcd60e51b815260206004820152603260248201527f4175746f6d617461557364743a205369676e657220646f6573206e6f74206d61604482015271746368202766726f6d27206164647265737360701b6064820152608401610266565b6001600160a01b0381165f908152600360205260409020805460018101909155506040516323b872dd60e01b81526001600160a01b038c811660048301528b81166024830152604482018b90525f917f0000000000000000000000000000000000000000000000000000000000000000909116906323b872dd906064016020604051808303815f875af1158015610718573d5f803e3d5ffd5b505050506040513d601f19601f8201168201806040525081019061073c9190610eb8565b90508061079e5760405162461bcd60e51b815260206004820152602a60248201527f4175746f6d617461557364743a205472616e7366657220746f20726563697069604482015269195b9d0819985a5b195960b21b6064820152608401610266565b8a6001600160a01b03168c6001600160a01b03167fd52bd61f7c422d441e024604f4517878fd3305d6acf0fe37baef23ed21af6bc98c6040516107e391815260200190565b60405180910390a3505050505050505050505050565b610801610833565b6001600160a01b03811661082a57604051631e4fbdf760e01b81525f6004820152602401610266565b6104978161085f565b5f546001600160a01b031633146103735760405163118cdaa760e01b8152336004820152602401610266565b5f80546001600160a01b038381166001600160a01b0319831681178455604051919092169283917f8be0079c531659141344cd1fd0a4f28419497f9722a3daafe3b4186f6b6457e09190a35050565b60606108db7f00000000000000000000000000000000000000000000000000000000000000006001610965565b905090565b60606108db7f00000000000000000000000000000000000000000000000000000000000000006002610965565b5f61038e610919610a0f565b8360405161190160f01b8152600281019290925260228201526042902090565b5f805f8061094988888888610b38565b9250925092506109598282610c00565b50909695505050505050565b606060ff831461097f5761097883610cbc565b905061038e565b81805461098b90610ed7565b80601f01602080910402602001604051908101604052809291908181526020018280546109b790610ed7565b8015610a025780601f106109d957610100808354040283529160200191610a02565b820191905f5260205f20905b8154815290600101906020018083116109e557829003601f168201915b5050505050905092915050565b5f306001600160a01b037f000000000000000000000000000000000000000000000000000000000000000016148015610a6757507f000000000000000000000000000000000000000000000000000000000000000046145b15610a9157507f000000000000000000000000000000000000000000000000000000000000000090565b6108db604080517f8b73c3c69bb8fe3d512ecc4cf759cc79239f7b179b0ffacaa9a75d522b39400f60208201527f0000000000000000000000000000000000000000000000000000000000000000918101919091527f000000000000000000000000000000000000000000000000000000000000000060608201524660808201523060a08201525f9060c00160405160208183030381529060405280519060200120905090565b5f80807f7fffffffffffffffffffffffffffffff5d576e7357a4501ddfe92f46681b20a0841115610b7157505f91506003905082610bf6565b604080515f808252602082018084528a905260ff891692820192909252606081018790526080810186905260019060a0016020604051602081039080840390855afa158015610bc2573d5f803e3d5ffd5b5050604051601f1901519150506001600160a01b038116610bed57505f925060019150829050610bf6565b92505f91508190505b9450945094915050565b5f826003811115610c1357610c13610f0f565b03610c1c575050565b6001826003811115610c3057610c30610f0f565b03610c4e5760405163f645eedf60e01b815260040160405180910390fd5b6002826003811115610c6257610c62610f0f565b03610c835760405163fce698f760e01b815260048101829052602401610266565b6003826003811115610c9757610c97610f0f565b03610cb8576040516335e2f38360e21b815260048101829052602401610266565b5050565b60605f610cc883610cf9565b6040805160208082528183019092529192505f91906020820181803683375050509182525060208101929092525090565b5f60ff8216601f81111561038e57604051632cd44ac360e21b815260040160405180910390fd5b6001600160a01b0381168114610497575f80fd5b5f60208284031215610d44575f80fd5b8135610d4f81610d20565b9392505050565b5f81518084525f5b81811015610d7a57602081850181015186830182015201610d5e565b505f602082860101526020601f19601f83011685010191505092915050565b60ff60f81b881681525f602060e06020840152610db960e084018a610d56565b8381036040850152610dcb818a610d56565b606085018990526001600160a01b038816608086015260a0850187905284810360c0860152855180825260208088019350909101905f5b81811015610e1e57835183529284019291840191600101610e02565b50909c9b505050505050505050505050565b5f805f805f805f60e0888a031215610e46575f80fd5b8735610e5181610d20565b96506020880135610e6181610d20565b95506040880135945060608801359350608088013560ff81168114610e84575f80fd5b9699959850939692959460a0840135945060c09093013592915050565b5f60208284031215610eb1575f80fd5b5051919050565b5f60208284031215610ec8575f80fd5b81518015158114610d4f575f80fd5b600181811c90821680610eeb57607f821691505b602082108103610f0957634e487b7160e01b5f52602260045260245ffd5b50919050565b634e487b7160e01b5f52602160045260245ffdfea2646970667358221220955e1d368d81d3f76985d63cf547cddaacf7f769c5ebb64fa0ed1e6a7591c12c64736f6c63430008180033",
  "devdoc": {
    "author": "Lazarus (Refactored for EIP-712)",
    "details": "Inherits from EIP712 and Nonces to support signature-based authorization. The relayer (msg.sender) submits a user's signature to authorize the transfer.",
    "errors": {
      "ECDSAInvalidSignature()": [
        {
          "details": "The signature derives the `address(0)`."
        }
      ],
      "ECDSAInvalidSignatureLength(uint256)": [
        {
          "details": "The signature has an invalid length."
        }
      ],
      "ECDSAInvalidSignatureS(bytes32)": [
        {
          "details": "The signature has an S value that is in the upper half order."
        }
      ],
      "InvalidAccountNonce(address,uint256)": [
        {
          "details": "The nonce used for an `account` is not the expected current nonce."
        }
      ],
      "OwnableInvalidOwner(address)": [
        {
          "details": "The owner is not a valid owner account. (eg. `address(0)`)"
        }
      ],
      "OwnableUnauthorizedAccount(address)": [
        {
          "details": "The caller account is not authorized to perform an operation."
        }
      ]
    },
    "events": {
      "EIP712DomainChanged()": {
        "details": "MAY be emitted to signal that the domain could have changed."
      }
    },
    "kind": "dev",
    "methods": {
      "eip712Domain()": {
        "details": "returns the fields and values that describe the domain separator used by this contract for EIP-712 signature."
      },
      "nonces(address)": {
        "details": "Allows off-chain services to query the nonce for signature generation.",
        "params": {
          "owner": "The address to query the nonce for."
        },
        "returns": {
          "_0": "The current nonce."
        }
      },
      "owner()": {
        "details": "Returns the address of the current owner."
      },
      "renounceOwnership()": {
        "details": "Leaves the contract without owner. It will not be possible to call `onlyOwner` functions. Can only be called by the current owner. NOTE: Renouncing ownership will leave the contract without an owner, thereby disabling any functionality that is only available to the owner."
      },
      "sendPaymentMeta(address,address,uint256,uint256,uint8,bytes32,bytes32)": {
        "details": "The relayer (msg.sender) submits the user's signature (v, r, s) to authorize a transfer *from* the user's wallet. The user ('from') MUST have approved this contract to spend their USDT.",
        "params": {
          "amount": "The net amount of USDT the recipient should receive.",
          "deadline": "The timestamp after which the signature is invalid.",
          "from": "The user's address authorizing the transfer.",
          "r": "The r value of the signature.",
          "s": "The s value of the signature.",
          "to": "The final recipient's address.",
          "v": "The recovery id of the signature."
        }
      },
      "transferOwnership(address)": {
        "details": "Transfers ownership of the contract to a new account (`newOwner`). Can only be called by the current owner."
      }
    },
    "title": "AutomataUsdt",
    "version": 1
  },
  "userdoc": {
    "kind": "user",
    "methods": {
      "nonces(address)": {
        "notice": "Returns the current nonce for an address."
      },
      "sendPaymentMeta(address,address,uint256,uint256,uint8,bytes32,bytes32)": {
        "notice": "Processes a USDT payment via a meta-transaction."
      },
      "withdrawAVAX()": {
        "notice": "Allows the owner to withdraw any native AVAX accidentally sent to this contract."
      },
      "withdrawTokens(address)": {
        "notice": "Allows the owner to rescue any ERC20 tokens accidentally sent to this contract's address (e.g., if a user sends tokens *to* the contract instead of approving it)."
      }
    },
    "notice": "A secure, generic, gasless USDT payment contract for the Automata platform.",
    "version": 1
  },
  "storageLayout": {
    "storage": [
      {
        "astId": 8,
        "contract": "contracts/AutomataUsdt.sol:AutomataUsdt",
        "label": "_owner",
        "offset": 0,
        "slot": "0",
        "type": "t_address"
      },
      {
        "astId": 4108,
        "contract": "contracts/AutomataUsdt.sol:AutomataUsdt",
        "label": "_nameFallback",
        "offset": 0,
        "slot": "1",
        "type": "t_string_storage"
      },
      {
        "astId": 4110,
        "contract": "contracts/AutomataUsdt.sol:AutomataUsdt",
        "label": "_versionFallback",
        "offset": 0,
        "slot": "2",
        "type": "t_string_storage"
      },
      {
        "astId": 1685,
        "contract": "contracts/AutomataUsdt.sol:AutomataUsdt",
        "label": "_nonces",
        "offset": 0,
        "slot": "3",
        "type": "t_mapping(t_address,t_uint256)"
      }
    ],
    "types": {
      "t_address": {
        "encoding": "inplace",
        "label": "address",
        "numberOfBytes": "20"
      },
      "t_mapping(t_address,t_uint256)": {
        "encoding": "mapping",
        "key": "t_address",
        "label": "mapping(address => uint256)",
        "numberOfBytes": "32",
        "value": "t_uint256"
      },
      "t_string_storage": {
        "encoding": "bytes",
        "label": "string",
        "numberOfBytes": "32"
      },
      "t_uint256": {
        "encoding": "inplace",
        "label": "uint256",
        "numberOfBytes": "32"
      }
    }
  }
}