{
  "address": "0xA4cD3b0Eb6E5Ab5d8CE4065BcCD70040ADAB1F00",
  "abi": [
    {
      "inputs": [
        {
          "internalType": "address",
          "name": "_usdtTokenAddress",
          "type": "address"
        },
        {
          "internalType": "address",
          "name": "_platformFeeWallet",
          "type": "address"
        },
        {
          "internalType": "address",
          "name": "_carbonOffsetWallet",
          "type": "address"
        }
      ],
      "stateMutability": "nonpayable",
      "type": "constructor"
    },
    {
      "inputs": [
        {
          "internalType": "address",
          "name": "owner",
          "type": "address"
        }
      ],
      "name": "OwnableInvalidOwner",
      "type": "error"
    },
    {
      "inputs": [
        {
          "internalType": "address",
          "name": "account",
          "type": "address"
        }
      ],
      "name": "OwnableUnauthorizedAccount",
      "type": "error"
    },
    {
      "inputs": [],
      "name": "ReentrancyGuardReentrantCall",
      "type": "error"
    },
    {
      "anonymous": false,
      "inputs": [
        {
          "indexed": false,
          "internalType": "uint256",
          "name": "newPlatformFeePercent",
          "type": "uint256"
        },
        {
          "indexed": false,
          "internalType": "uint256",
          "name": "newCarbonOffsetFeePercent",
          "type": "uint256"
        }
      ],
      "name": "FeesUpdated",
      "type": "event"
    },
    {
      "anonymous": false,
      "inputs": [
        {
          "indexed": true,
          "internalType": "address",
          "name": "previousOwner",
          "type": "address"
        },
        {
          "indexed": true,
          "internalType": "address",
          "name": "newOwner",
          "type": "address"
        }
      ],
      "name": "OwnershipTransferred",
      "type": "event"
    },
    {
      "anonymous": false,
      "inputs": [
        {
          "indexed": true,
          "internalType": "address",
          "name": "from",
          "type": "address"
        },
        {
          "indexed": true,
          "internalType": "address",
          "name": "to",
          "type": "address"
        },
        {
          "indexed": false,
          "internalType": "uint256",
          "name": "amountSent",
          "type": "uint256"
        },
        {
          "indexed": false,
          "internalType": "uint256",
          "name": "platformFee",
          "type": "uint256"
        },
        {
          "indexed": false,
          "internalType": "uint256",
          "name": "carbonOffsetFee",
          "type": "uint256"
        }
      ],
      "name": "RemittanceSent",
      "type": "event"
    },
    {
      "anonymous": false,
      "inputs": [
        {
          "indexed": false,
          "internalType": "address",
          "name": "newPlatformFeeWallet",
          "type": "address"
        },
        {
          "indexed": false,
          "internalType": "address",
          "name": "newCarbonOffsetWallet",
          "type": "address"
        }
      ],
      "name": "WalletsUpdated",
      "type": "event"
    },
    {
      "inputs": [],
      "name": "FEE_BASIS",
      "outputs": [
        {
          "internalType": "uint256",
          "name": "",
          "type": "uint256"
        }
      ],
      "stateMutability": "view",
      "type": "function"
    },
    {
      "inputs": [],
      "name": "carbonOffsetFeePercent",
      "outputs": [
        {
          "internalType": "uint256",
          "name": "",
          "type": "uint256"
        }
      ],
      "stateMutability": "view",
      "type": "function"
    },
    {
      "inputs": [],
      "name": "carbonOffsetWallet",
      "outputs": [
        {
          "internalType": "address",
          "name": "",
          "type": "address"
        }
      ],
      "stateMutability": "view",
      "type": "function"
    },
    {
      "inputs": [],
      "name": "owner",
      "outputs": [
        {
          "internalType": "address",
          "name": "",
          "type": "address"
        }
      ],
      "stateMutability": "view",
      "type": "function"
    },
    {
      "inputs": [],
      "name": "platformFeePercent",
      "outputs": [
        {
          "internalType": "uint256",
          "name": "",
          "type": "uint256"
        }
      ],
      "stateMutability": "view",
      "type": "function"
    },
    {
      "inputs": [],
      "name": "platformFeeWallet",
      "outputs": [
        {
          "internalType": "address",
          "name": "",
          "type": "address"
        }
      ],
      "stateMutability": "view",
      "type": "function"
    },
    {
      "inputs": [],
      "name": "renounceOwnership",
      "outputs": [],
      "stateMutability": "nonpayable",
      "type": "function"
    },
    {
      "inputs": [
        {
          "internalType": "address",
          "name": "_recipient",
          "type": "address"
        },
        {
          "internalType": "uint256",
          "name": "_amount",
          "type": "uint256"
        }
      ],
      "name": "sendRemittance",
      "outputs": [],
      "stateMutability": "nonpayable",
      "type": "function"
    },
    {
      "inputs": [
        {
          "internalType": "uint256",
          "name": "_newPlatformFeePercent",
          "type": "uint256"
        },
        {
          "internalType": "uint256",
          "name": "_newCarbonOffsetFeePercent",
          "type": "uint256"
        }
      ],
      "name": "setFeePercentages",
      "outputs": [],
      "stateMutability": "nonpayable",
      "type": "function"
    },
    {
      "inputs": [
        {
          "internalType": "address",
          "name": "_newPlatformWallet",
          "type": "address"
        },
        {
          "internalType": "address",
          "name": "_newCarbonOffsetWallet",
          "type": "address"
        }
      ],
      "name": "setFeeWallets",
      "outputs": [],
      "stateMutability": "nonpayable",
      "type": "function"
    },
    {
      "inputs": [
        {
          "internalType": "address",
          "name": "newOwner",
          "type": "address"
        }
      ],
      "name": "transferOwnership",
      "outputs": [],
      "stateMutability": "nonpayable",
      "type": "function"
    },
    {
      "inputs": [],
      "name": "usdtToken",
      "outputs": [
        {
          "internalType": "contract IERC20",
          "name": "",
          "type": "address"
        }
      ],
      "stateMutability": "view",
      "type": "function"
    },
    {
      "inputs": [],
      "name": "withdrawAVAX",
      "outputs": [],
      "stateMutability": "nonpayable",
      "type": "function"
    },
    {
      "inputs": [
        {
          "internalType": "contract IERC20",
          "name": "_tokenAddress",
          "type": "address"
        }
      ],
      "name": "withdrawTokens",
      "outputs": [],
      "stateMutability": "nonpayable",
      "type": "function"
    }
  ],
  "transactionHash": "0x6a24a12d677a26422f51dfc62f9a2d2f1dc93bb7d872fcc5030ccbef37c2aa13",
  "args": [
    "0x52C84043CD9c865236f11d9Fc9F56aa003c1f922",
    "0x8db97C7cEcE249c2b98bDC0226Cc4C2A57BF52FC",
    "0x8db97C7cEcE249c2b98bDC0226Cc4C2A57BF52FC"
  ],
  "numDeployments": 2,
  "solcInputHash": "b27939bafdb1d9df4b1367402f11be7c",
  "bytecode": "0x60a06040523480156200001157600080fd5b5060405162001443380380620014438339810160408190526200003491620002f8565b33806200005c57604051631e4fbdf760e01b8152600060048201526024015b60405180910390fd5b62000067816200028b565b5060017f9b779b17422d0df92223018b32b4d1fa46e071723d6817e2486d003becc55f00556001600160a01b038316620000f25760405162461bcd60e51b815260206004820152602560248201527f45636f52656d69743a205553445420616464726573732063616e6e6f74206265604482015264207a65726f60d81b606482015260840162000053565b6001600160a01b0382166200015b5760405162461bcd60e51b815260206004820152602860248201527f45636f52656d69743a20506c6174666f726d2077616c6c65742063616e6e6f74604482015267206265207a65726f60c01b606482015260840162000053565b6001600160a01b038116620001c25760405162461bcd60e51b815260206004820152602660248201527f45636f52656d69743a204f66667365742077616c6c65742063616e6e6f74206260448201526565207a65726f60d01b606482015260840162000053565b6001600160a01b03838116608052600180548483166001600160a01b03199182168117909255600280549385169390911683179055606460035560326004556040805191825260208201929092527f316af92955f23ddbd4c570a5f8cda8a10b192f24d8f58524deb2fcb03a8bc794910160405180910390a17f5c6323bf1c2d7aaea2c091a4751c1c87af7f2864650c336507a77d0557af37a16003546004546040516200027a929190918252602082015260400190565b60405180910390a150505062000342565b600080546001600160a01b038381166001600160a01b0319831681178455604051919092169283917f8be0079c531659141344cd1fd0a4f28419497f9722a3daafe3b4186f6b6457e09190a35050565b80516001600160a01b0381168114620002f357600080fd5b919050565b6000806000606084860312156200030e57600080fd5b6200031984620002db565b92506200032960208501620002db565b91506200033960408501620002db565b90509250925092565b6080516110c96200037a60003960008181610185015281816105f5015281816106ff015281816107f801526108f501526110c96000f3fe608060405234801561001057600080fd5b50600436106100ea5760003560e01c8063a98ad46c1161008c578063e20fc11811610066578063e20fc118146101b8578063e4c48ad7146101cb578063f2fde38b146101de578063fd1fb605146101f157600080fd5b8063a98ad46c14610180578063abce145b146101a7578063c530dda8146101af57600080fd5b806383d02a37116100c857806383d02a371461011f5780638686ebcc1461014f5780638c639a85146101665780638da5cb5b1461016f57600080fd5b806349df728c146100ef578063715018a6146101045780637b8e0eb61461010c575b600080fd5b6101026100fd366004610ef0565b610204565b005b6101026103c2565b61010261011a366004610f14565b6103d6565b600254610132906001600160a01b031681565b6040516001600160a01b0390911681526020015b60405180910390f35b61015861271081565b604051908152602001610146565b61015860035481565b6000546001600160a01b0316610132565b6101327f000000000000000000000000000000000000000000000000000000000000000081565b610102610a46565b61015860045481565b600154610132906001600160a01b031681565b6101026101d9366004610f40565b610b09565b6101026101ec366004610ef0565b610bc3565b6101026101ff366004610f62565b610bfe565b61020c610d39565b6040516370a0823160e01b81523060048201526000906001600160a01b038316906370a0823190602401602060405180830381865afa158015610253573d6000803e3d6000fd5b505050506040513d601f19601f820116820180604052508101906102779190610f9b565b9050600081116102ce5760405162461bcd60e51b815260206004820152601f60248201527f45636f52656d69743a204e6f20746f6b656e7320746f2077697468647261770060448201526064015b60405180910390fd5b6000826001600160a01b031663a9059cbb6102f16000546001600160a01b031690565b6040516001600160e01b031960e084901b1681526001600160a01b039091166004820152602481018590526044016020604051808303816000875af115801561033e573d6000803e3d6000fd5b505050506040513d601f19601f820116820180604052508101906103629190610fb4565b9050806103bd5760405162461bcd60e51b815260206004820152602360248201527f45636f52656d69743a204661696c656420746f20776974686472617720746f6b604482015262656e7360e81b60648201526084016102c5565b505050565b6103ca610d39565b6103d46000610d66565b565b6103de610db6565b6001600160a01b0382166104475760405162461bcd60e51b815260206004820152602a60248201527f45636f52656d69743a20526563697069656e742063616e6e6f74206265207a65604482015269726f206164647265737360b01b60648201526084016102c5565b600081116104aa5760405162461bcd60e51b815260206004820152602a60248201527f45636f52656d69743a20416d6f756e74206d7573742062652067726561746572604482015269207468616e207a65726f60b01b60648201526084016102c5565b6000806104b683610de4565b90925090506000816104c88486610fec565b6104d29190610fec565b90506105136040518060400160405280601981526020017f45636f52656d69743a2053656e64696e6720257320555344540000000000000081525082610e2f565b6105526040518060400160405280601a81526020017f20202d3e20546f20526563697069656e743a202573205553445400000000000081525085610e2f565b6105916040518060400160405280601981526020017f20202d3e20546f20506c6174666f726d3a20257320555344540000000000000081525084610e2f565b6105d06040518060400160405280601781526020017f20202d3e20546f204f66667365743a202573205553445400000000000000000081525083610e2f565b6040516323b872dd60e01b8152336004820152306024820152604481018290526000907f00000000000000000000000000000000000000000000000000000000000000006001600160a01b0316906323b872dd906064016020604051808303816000875af1158015610646573d6000803e3d6000fd5b505050506040513d601f19601f8201168201806040525081019061066a9190610fb4565b9050806106d65760405162461bcd60e51b815260206004820152603460248201527f45636f52656d69743a2055534454207472616e7366657246726f6d206661696c60448201527332b2171021b432b1b59030b63637bbb0b731b29760611b60648201526084016102c5565b60405163a9059cbb60e01b81526001600160a01b038781166004830152602482018790526000917f00000000000000000000000000000000000000000000000000000000000000009091169063a9059cbb906044016020604051808303816000875af115801561074a573d6000803e3d6000fd5b505050506040513d601f19601f8201168201806040525081019061076e9190610fb4565b9050806107cc5760405162461bcd60e51b815260206004820152602660248201527f45636f52656d69743a205472616e7366657220746f20726563697069656e742060448201526519985a5b195960d21b60648201526084016102c5565b60015460405163a9059cbb60e01b81526001600160a01b039182166004820152602481018790526000917f0000000000000000000000000000000000000000000000000000000000000000169063a9059cbb906044016020604051808303816000875af1158015610841573d6000803e3d6000fd5b505050506040513d601f19601f820116820180604052508101906108659190610fb4565b9050816108c95760405162461bcd60e51b815260206004820152602c60248201527f45636f52656d69743a205472616e7366657220746f20706c6174666f726d207760448201526b185b1b195d0819985a5b195960a21b60648201526084016102c5565b60025460405163a9059cbb60e01b81526001600160a01b039182166004820152602481018790526000917f0000000000000000000000000000000000000000000000000000000000000000169063a9059cbb906044016020604051808303816000875af115801561093e573d6000803e3d6000fd5b505050506040513d601f19601f820116820180604052508101906109629190610fb4565b9050806109c45760405162461bcd60e51b815260206004820152602a60248201527f45636f52656d69743a205472616e7366657220746f206f66667365742077616c6044820152691b195d0819985a5b195960b21b60648201526084016102c5565b60408051898152602081018990529081018790526001600160a01b038a169033907f205c71b6dd9b7b8ae5913f3417ba982b4f26cea9590c614fc15bcc6e60b177399060600160405180910390a350505050505050610a4260017f9b779b17422d0df92223018b32b4d1fa46e071723d6817e2486d003becc55f0055565b5050565b610a4e610d39565b600080546040516001600160a01b039091169047908381818185875af1925050503d8060008114610a9b576040519150601f19603f3d011682016040523d82523d6000602084013e610aa0565b606091505b5050905080610b065760405162461bcd60e51b815260206004820152602c60248201527f45636f52656d69743a204661696c656420746f207769746864726177206e617460448201526b6976652063757272656e637960a01b60648201526084016102c5565b50565b610b11610d39565b6107d0610b1e8284610fec565b1115610b7b5760405162461bcd60e51b815260206004820152602660248201527f45636f52656d69743a20546f74616c20666565732063616e6e6f74206578636560448201526565642032302560d01b60648201526084016102c5565b6003829055600481905560408051838152602081018390527f5c6323bf1c2d7aaea2c091a4751c1c87af7f2864650c336507a77d0557af37a191015b60405180910390a15050565b610bcb610d39565b6001600160a01b038116610bf557604051631e4fbdf760e01b8152600060048201526024016102c5565b610b0681610d66565b610c06610d39565b6001600160a01b038216610c6d5760405162461bcd60e51b815260206004820152602860248201527f45636f52656d69743a20506c6174666f726d2077616c6c65742063616e6e6f74604482015267206265207a65726f60c01b60648201526084016102c5565b6001600160a01b038116610cd25760405162461bcd60e51b815260206004820152602660248201527f45636f52656d69743a204f66667365742077616c6c65742063616e6e6f74206260448201526565207a65726f60d01b60648201526084016102c5565b600180546001600160a01b038481166001600160a01b03199283168117909355600280549185169190921681179091556040805192835260208301919091527f316af92955f23ddbd4c570a5f8cda8a10b192f24d8f58524deb2fcb03a8bc7949101610bb7565b6000546001600160a01b031633146103d45760405163118cdaa760e01b81523360048201526024016102c5565b600080546001600160a01b038381166001600160a01b0319831681178455604051919092169283917f8be0079c531659141344cd1fd0a4f28419497f9722a3daafe3b4186f6b6457e09190a35050565b610dbe610e74565b60027f9b779b17422d0df92223018b32b4d1fa46e071723d6817e2486d003becc55f0055565b600080600061271060035485610dfa9190611005565b610e04919061101c565b9050600061271060045486610e199190611005565b610e23919061101c565b91959194509092505050565b610a428282604051602401610e4592919061103e565b60408051601f198184030181529190526020810180516001600160e01b0316632d839cb360e21b179052610eb6565b7f9b779b17422d0df92223018b32b4d1fa46e071723d6817e2486d003becc55f00546002036103d457604051633ee5aeb560e01b815260040160405180910390fd5b610b068160006a636f6e736f6c652e6c6f679050600080835160208501845afa505050565b6001600160a01b0381168114610b0657600080fd5b600060208284031215610f0257600080fd5b8135610f0d81610edb565b9392505050565b60008060408385031215610f2757600080fd5b8235610f3281610edb565b946020939093013593505050565b60008060408385031215610f5357600080fd5b50508035926020909101359150565b60008060408385031215610f7557600080fd5b8235610f8081610edb565b91506020830135610f9081610edb565b809150509250929050565b600060208284031215610fad57600080fd5b5051919050565b600060208284031215610fc657600080fd5b81518015158114610f0d57600080fd5b634e487b7160e01b600052601160045260246000fd5b80820180821115610fff57610fff610fd6565b92915050565b8082028115828204841417610fff57610fff610fd6565b60008261103957634e487b7160e01b600052601260045260246000fd5b500490565b604081526000835180604084015260005b8181101561106c576020818701810151606086840101520161104f565b506000606082850101526060601f19601f830116840101915050826020830152939250505056fea264697066735822122030c15e2340c8b22395e20fbe81de7ed0f5aa7e9a04a0d2bce1a698c8154d0d2864736f6c63430008140033",
  "devdoc": {
    "author": "Lazarus",
    "details": "This contract facilitates peer-to-peer payments using USDT (or any ERC20) while automatically splitting off platform and carbon offset fees. It inherits from Ownable for admin controls and ReentrancyGuard for security.",
    "errors": {
      "OwnableInvalidOwner(address)": [
        {
          "details": "The owner is not a valid owner account. (eg. `address(0)`)"
        }
      ],
      "OwnableUnauthorizedAccount(address)": [
        {
          "details": "The caller account is not authorized to perform an operation."
        }
      ],
      "ReentrancyGuardReentrantCall()": [
        {
          "details": "Unauthorized reentrant call."
        }
      ]
    },
    "events": {
      "FeesUpdated(uint256,uint256)": {
        "params": {
          "newCarbonOffsetFeePercent": "The new carbon offset fee in basis points.",
          "newPlatformFeePercent": "The new platform fee in basis points."
        }
      },
      "RemittanceSent(address,address,uint256,uint256,uint256)": {
        "params": {
          "amountSent": "The net amount sent to the recipient.",
          "carbonOffsetFee": "The fee amount sent to the carbon offset wallet.",
          "from": "The user (msg.sender) who initiated the remittance.",
          "platformFee": "The fee amount sent to the platform wallet.",
          "to": "The final recipient of the funds."
        }
      },
      "WalletsUpdated(address,address)": {
        "params": {
          "newCarbonOffsetWallet": "The new address for the carbon offset wallet.",
          "newPlatformFeeWallet": "The new address for the platform wallet."
        }
      }
    },
    "kind": "dev",
    "methods": {
      "constructor": {
        "params": {
          "_carbonOffsetWallet": "The address to receive carbon offset fees.",
          "_platformFeeWallet": "The address to receive platform fees.",
          "_usdtTokenAddress": "The address of the USDT (or equivalent) ERC20 token contract."
        }
      },
      "owner()": {
        "details": "Returns the address of the current owner."
      },
      "renounceOwnership()": {
        "details": "Leaves the contract without owner. It will not be possible to call `onlyOwner` functions. Can only be called by the current owner. NOTE: Renouncing ownership will leave the contract without an owner, thereby disabling any functionality that is only available to the owner."
      },
      "sendRemittance(address,uint256)": {
        "details": "The caller (msg.sender) MUST have approved this contract to spend at least the (amount + fees) in USDT tokens *before* calling this function. The `_amount` parameter is the net value the recipient will receive. This function is protected against re-entrancy attacks.",
        "params": {
          "_amount": "The net amount of USDT the recipient should receive.",
          "_recipient": "The address of the final remittance recipient."
        }
      },
      "setFeePercentages(uint256,uint256)": {
        "details": "Only the owner can call this function.",
        "params": {
          "_newCarbonOffsetFeePercent": "The new carbon offset fee in basis points.",
          "_newPlatformFeePercent": "The new platform fee in basis points."
        }
      },
      "setFeeWallets(address,address)": {
        "details": "Only the owner can call this function.",
        "params": {
          "_newCarbonOffsetWallet": "The new address for the carbon offset fee wallet.",
          "_newPlatformWallet": "The new address for the platform fee wallet."
        }
      },
      "transferOwnership(address)": {
        "details": "Transfers ownership of the contract to a new account (`newOwner`). Can only be called by the current owner."
      },
      "withdrawTokens(address)": {
        "details": "Do NOT use this for the primary `usdtToken` unless in an emergency.",
        "params": {
          "_tokenAddress": "The address of the ERC20 token to rescue."
        }
      }
    },
    "title": "EcoRemit",
    "version": 1
  },
  "userdoc": {
    "events": {
      "FeesUpdated(uint256,uint256)": {
        "notice": "Emitted when fee percentages are updated by the owner."
      },
      "RemittanceSent(address,address,uint256,uint256,uint256)": {
        "notice": "Emitted when a remittance is successfully processed and distributed."
      },
      "WalletsUpdated(address,address)": {
        "notice": "Emitted when fee collection wallets are updated by the owner."
      }
    },
    "kind": "user",
    "methods": {
      "FEE_BASIS()": {
        "notice": "The denominator for all fee calculations (100.00%)."
      },
      "carbonOffsetFeePercent()": {
        "notice": "The carbon offset fee in basis points (e.g., 50 = 0.50%)."
      },
      "carbonOffsetWallet()": {
        "notice": "The wallet address that receives carbon offset fees."
      },
      "constructor": {
        "notice": "Initializes the contract with token and wallet addresses, and sets default fees."
      },
      "platformFeePercent()": {
        "notice": "The platform fee in basis points (e.g., 100 = 1.00%)."
      },
      "platformFeeWallet()": {
        "notice": "The wallet address that receives platform fees."
      },
      "sendRemittance(address,uint256)": {
        "notice": "Processes a remittance payment from a user (msg.sender) to a recipient."
      },
      "setFeePercentages(uint256,uint256)": {
        "notice": "Updates the fee percentages for platform and carbon offsets."
      },
      "setFeeWallets(address,address)": {
        "notice": "Updates the wallet addresses for fee collection."
      },
      "usdtToken()": {
        "notice": "The ERC20 token contract used for remittances (e.g., USDT)."
      },
      "withdrawAVAX()": {
        "notice": "Allows the owner to withdraw any native AVAX (ETH) accidentally sent to this contract."
      },
      "withdrawTokens(address)": {
        "notice": "Allows the owner to rescue any ERC20 tokens accidentally sent to this contract's address."
      }
    },
    "notice": "A secure and gas-efficient smart contract for processing sustainable remittances.",
    "version": 1
  },
  "storageLayout": {
    "storage": [
      {
        "astId": 8,
        "contract": "contracts/EcoRemit.sol:EcoRemit",
        "label": "_owner",
        "offset": 0,
        "slot": "0",
        "type": "t_address"
      },
      {
        "astId": 510,
        "contract": "contracts/EcoRemit.sol:EcoRemit",
        "label": "platformFeeWallet",
        "offset": 0,
        "slot": "1",
        "type": "t_address"
      },
      {
        "astId": 513,
        "contract": "contracts/EcoRemit.sol:EcoRemit",
        "label": "carbonOffsetWallet",
        "offset": 0,
        "slot": "2",
        "type": "t_address"
      },
      {
        "astId": 516,
        "contract": "contracts/EcoRemit.sol:EcoRemit",
        "label": "platformFeePercent",
        "offset": 0,
        "slot": "3",
        "type": "t_uint256"
      },
      {
        "astId": 519,
        "contract": "contracts/EcoRemit.sol:EcoRemit",
        "label": "carbonOffsetFeePercent",
        "offset": 0,
        "slot": "4",
        "type": "t_uint256"
      }
    ],
    "types": {
      "t_address": {
        "encoding": "inplace",
        "label": "address",
        "numberOfBytes": "20"
      },
      "t_uint256": {
        "encoding": "inplace",
        "label": "uint256",
        "numberOfBytes": "32"
      }
    }
  }
}